:4000000000100020A5020000A1020000A1020000F8B51148114A1AE055689368D4689D4209D0002104E06E1877683668C0C30831A142F8D100E01B191469002103E0002572
:40004000002660C30831A142F9D1143201380028E2D100F08BFFC0460100000034130000F8B572B6614C624B01221A700021A288206800F035FF2089E388000418430021C8
:40008000628900F02DFF231C0C3300211A68574EFF27D5B24800BA433036171C3218281C06E016785478F61901383470C0B202320028F6D14F4A043349199342E6D14E4A43
:4000C00080235B0013804D4B01221A704C4B30221A604C4AC0239B041360EE231B0208321360494B02221A60312208331A604022F8331A60454AC0235B031360444AD82354
:400100001B011360434A444B44491A60444A80239B02136080231B030432136099231B0408321360802292050A603E4A13603E4B10221A603D4B05221A603D4B06221A60B4
:400140003C4B022219780A431A70197806220A431A70394A80231168DB020B431360374B197801331A780D3B587A172810D99879997ADA7A17280BD9D878D9791A7A172874
:4001800006D9187819795A79172801D959789A782B4B0520196004331A6019220C331A6000F00EFE274B05201A78274B1A6000F0E3FB214B254A19680A401A60244B3022F6
:4001C0001A60102210331A60224A80231B061360043A1360204A214B1A600D32FF3240331A601F4A40331A60F8BDC046301000001C700F406010000000600F4002600F4099
:4002000000000140040001400000044008010440080304400400990000500F4018500F4004500F4030500F40200105402000004000800F4000700F4000010B40CCF1FF0F88
:400240001CFF0B40E5F1FF0F28FF0B40FFFFFBFF2002024008010B4033000080000002402B0100C000B5034B1A78002A01D10120187000BDF000002008B504480368002B8B
:4002800003D0034B002B00D0984708BDD00000200000000008B500F003FC00F02FFAFEE700B5FEE7024B9D4600F058F8014B1847001000201100000008B500220023032BBE
:4002C00001D90C4901E00C4989580C48013381500432302BF3D1FFF7C3FE094B00221A60084B1A68002A00D11A608023DB0501221A6008BDA1020000000000000000002071
:40030000C8000020C000002000B5002305E0027801399B189BB2013089B20029F7D15B4298B200BD00B50B18002003E01A7801398018C0B2013B0029F8D100BD034B8022F7
:400340001A60034A034B1A607047C046C00000200400FA050CED00E00047000008B5154B1B68DA0625D5144B1A68802A21D100221A60124B1A7801331878013319780133EF
:400380001B78002805D1002903D1002A01D1002B0FD00A4B1A78013318780133197801331B7800020904084310431B061843FFF7D3FF08BD00030B40C0000020C17F00004E
:4003C000F0B51B4B1B4A1C481F78117805780130067801300478013000780902360224043943344301312C430006C90104430C191978137800221B020B430133DB01002172
:4004000008E01878451EEDB2FD2D00D801211218D2B20133A342F4D3084B52421B78D2B29A4203D1002901D0002000E00620F0BDC57F0000C67F0000C97F0000C07F000005
:4004400030B583B06D46063501230C1C2A800B70487091B20B0AA1700431E37089B2201CFFF752FF29881722631818710731000A58719A7189B22A1C201C962300F0C8F973
:4004800003B030BDF0B5934CA544002802D1FF21019100E001904442444100F0CAF962B60022029200268C4D50AF6D449621381C49002A1C019B00F055F9052800D1F1E093
:4004C000102800D1EEE02B88062B00D8E5E03A78012A00D0E1E06A46694643324431FF31FF3212780D782D021543291D7A18127803926A1DBA1812780092EA1D9A427FD850
:40050000EB199B79172B00D0C7E089B2381CFFF7FBFE0099039A0B021343834200D1C5E00820BBE0002C00D1B7E0002D00D0B4E0FFF746FF50AB424242411A719DE0002C3F
:4005400000D1AAE0012D00D0A7E0009B002B0ED1624B6C461B6824781A6850ABD20992B21A71120A5A71012252429A71DC7101240020042293E0002C02D0032D00D08BE014
:4005800005A80021802200F0ABFC8026002C00D183E0022D00D880E06946EA1E05A8483175198019FF31ADB200F01AFC832D02D00124002624E06B464633FF3302981E78D1
:4005C00001331D7800280BD19BAC00218022201C00F086FC211CFF2000F034F9012102912802304305A900F02DF901240026002854D00A2052E0962377195B009F4201D995
:4006000003204BE005A8801951A92A1C00F0E8FBBEB2002042E0002D3FD19BAB304A191C11CA11C151AA12CB12C200200124082235E0002C31D0032D2FD16B466A4646331B
:400640004732FF33FF321B781478009924021C4308022018C0018021FFF764FEFF2C09D1009A002A06D11F4B1B78C01A1E4B1B78C01AC0B2404250AB187101240020012238
:400680000DE0FFF79DFE002802D1184B80221A60174A184B1A6005E001240420002250A9FFF7CEFE002C00D0FDE60EE03B7900937B78313BDBB20A2B05D80F4A9B009B5800
:4006C0009F460026EEE70520E8E7BD239B009D44F0BDC0460CFDFFFFEE020000D400002028100000D07F0000D17F0000C00000200400FA050CED00E0FC0F000010B5164C67
:40070000C02023681968C039FFF70CFE63681B78181AC0B2984203D123681B68002B02D1002000F017F9FFF74BFE002807D10B4B1B68DA0609D50A4B1B68402B05D1084BB6
:4007400000221A600020FFF79DFEC820FFF79AFEFFF7F4FD10BDC046D400002000030B40C0000020F0B59D0085B0ED1801900391171C6D00002415E000F01AFA00280CD078
:4007800000F016FA041C192000F000F900F010FAA042F5D80022009208E0012000F0F6F80134A4B2AC42E7DB0523009300233B80002526E000F0FCF93B88039AC3189BB247
:4007C000061C3B80934219D2002406E000F00EFA019B029A01349854A4B263199BB20293B442F3D37519019AADB2AB18013B1B78172B06D0052000F0C9F802E01E1A3E80B1
:4008000003E000F0D5F90028D4D1009805B0F0BDF8B5061C0D1C171C00F0ACF90024305D013400F04BF9A3B2AB42F8D33D800020F8BD08B500F04EFA00F09CF900F078F9FC
:4008400008BD000010B5A6B00023041C2593002959D0FF2857D82E4B01AA1A6080235B0003402C481B04034301937F23536003A8802200F0B5FA284A284B1A60274B1B6814
:40088000002BFBDB224B1B682493249AA0231B069A4201D1002306E0249AF0231B061A409A4202D10923259308E0194B1A68F0231B061A40A0231B069A42F6D1259B002B8A
:4008C00023D1134B01AA1A60154B24041C43019400F07FFA134B144A1B6823930F4B1A600E4B1B68002BFBDB239A0E4B1A6000F074FA074B1B682493249AA0231B069A42FE
:4009000003D0249B00E001232593259826B010BD08000040B6D700000400008004000040B6D8000008010B40050000801F23184001238340181C014B1860704700E100E014
:400940001F23184001238340181C014B1860704780E100E001BE704738B5041C0D1C1F2802D90020FFF7F6FF024BA400E4182068256038BD4000002008B5034B1B795843A4
:4009800000F01EFA08BDC046DC00002010B5041C04E0D06800F014FA054BE41880231B02044A9C42F5D89068604300F009FA10BD0080FFFFDC00002038B5041C0D1C03292D
:4009C00002D90020FFF7C6FF1F2C02D90020FFF7C1FF00F0FEF9A308084A9B009B1803221440E40019680634A2409143A5400C1C2C431C6000F0F1F938BDC04600E400E0B4
:400A0000014B80B21860704714010540014B80B2186070470C010540014B18607047C0463801054008B50C4B8022D2041A601A6801201A601A681A600C2224331A60FFF79D
:400A4000EBFFFE20FFF7DCFF7F20FFF7DFFF034B31221A6008BDC046000105402801054038B50D1C041C00F0B4F9034BAC401C6000F0B3F938BDC0460800054008B500F076
:400A8000A8F9064B012219680A431A6000F0A5F901201821FFF7E4FF08BDC0460000054010B5054C2378002B03D1FFF7BBFF01232370FFF7E3FF10BDF100002010B5104B1B
:400AC0005B780F4A9278934202D2511E591A01E0991A3F394C4261410029F2D19A4206D1084A1278510702D4074B187007E03F2B00D90023054AD054014A0133537010BDA7
:400B0000F200002062000F4042000F403C01002008B50220FFF714FF08BD08B50020FFF70FFF08BD08B50220FFF700FF08BD000008B500F04EF90A4B012219780A431A7044
:400B40001978FE220A401A7000F047F9FFF7E0FF044B00229A705A70FFF7E4FF08BDC04692000F40F200002008B50020FFF7DEFE08BD000008B500F02CF90B4B01221978BF
:400B80000A431A701978FE220A401A7000F025F9FFF7C3FF054B00225A719A71DA711A70FFF7E2FF08BDC04693000F40F200002010B5FFF7B2FF0C4B59799A79914206D10E
:400BC000DB79002B01D100240AE0402408E059799A799C795B79914200D34034E41AE4B2FFF7C2FF201C10BDF200002010B5FFF794FF0E4B5A799979DB79002B01D18A4253
:400C00000ED00B4B9C5C0132D2B23F2A00D90022064B5A71DA79002A04D00022DA7101E0044B1C78FFF7A0FF201C10BDF2000020FC00002043000F4038B500F0CAF80E4B79
:400C40002022197810240A431A7001331A78051C2243D2B21A700020FFF768FE074B02201A781443E4B21C70FFF760FE00F09CF8281C00F0B2F838BD90000F4092000F40D6
:400C800008B510490020FFF767FE00200321FFF793FE0D4B72221A70202201331A700B490220FFF759FE02200321FFF785FE084B07221A70482210331A70022251331A7071
:400CC00008BDC046F10C000080000F405D0D000021000F4010B5054CE378002B03D1FFF7CFFF0123E370FFF7A7FF10BDF200002000B51FE0124A134B1B781178124AD15452
:400D0000124B1B78002B02D0114B01221A700D4B1A780132D2B21A701A783F2A01D900221A70084B1A780B4B1B789A4202D1074B01221A70084B1B789A06DBD400BDC0469D
:400D400043000F40F8000020FC000020F9000020F2000020F700002061000F4000B50D4B18780DE019783F2900D91A700A4B0B491A78895C0A4A11701A780132D2B21A700D
:400D8000054B1A78824204D0064A117804220A40E8D000BDF3000020F40000203C01002042000F4062000F40034A802311681B060B4313607047C0460000024000000000EB
:400DC0000230800804D0C0460138FDD1C046C0467047EFF3108072B6704780F310887047F0B585B0032A09D8002A05D00023CC5CC45401339342FAD105B0F0BD8218031C49
:400E0000032403E00D7801311D70013303252342F8D10D403DD1D41A22E00D68403C1D604D685D608D689D60CD68DD600D691D614D695D618D699D61CD69DD610D6A1D6285
:400E40004D6A5D628D6A9D62CD6ADD620D6B1D634D6B5D638D6B9D63CD6B4031DD6340333F2CDADCD41A0AE00D68103C1D604D685D608D689D60CD681031DD6010330F2C00
:400E8000F2DCD41A02E020C9043C20C3032CFADC23E0EF006C42029704270E597D1BED000095B446D51A0C190FE0266867460196029E0431F7400397009E019F043DB740B3
:400EC000039E3E43019F40C3BC460434032DECDC03E00C7801311C7001339342F9D38BE730B5C9B2032A08D8002A05D0031C1218197001339342FBD130BD8418031C0322AF
:400F000001E0197001331342FBD10A02521815045219E51A11E01A605A609A60DA601A615A619A61DA611A625A629A62DA621A635A639A63DA63403D40333F2DEBDCE51A2E
:400F400005E01A605A609A60DA60103D10330F2DF7DCE51A01E004C3043D032DFBDC01E0197001339C42FBD8C6E7C04608B500F01DF80A4B002B01D1002000E01868084BAD
:400F8000002B01D1002100E019680022FFF782F9044B002B01D000E000BFFEE7000000000000000000000000FEE7000070B50D4D0D4E761BB610002E05D0002408CD013409
:400FC0009847A642FAD800F0A3F9084D084E761BB610002E05D0002408CD01349847A642FAD870BD1C1300001C1300001C13000024130000FD000000801300002405000056
:401000003E050000C606000076050000C2060000C6060000F6050000160600008C05000032060000820600009311C804110A010100300F40000400400F40000403000F4035
:401040004F300F4035310F406B320F404D330F400A400F4009410F4004430F4002600F4080728138820F011004F30518060C080F09080AF00C820D3C0F421041130416F38B
:40108000170318C319671B181CFF1D7F20082404253C2741280C29042B802C1C2EE330C03180322C3320340F351F361C374039803A283B203F0456025712580459045B040F
:4010C0005F018C049A019E01A002B002B201B404B602BB02BE54C002C601C750C824C9FFCA07CBFFCC40CD20CEF0CF05D008D418D604D804D904DA04DB04DF01E040E1A869
:40110000E240E320004403080702088409010A040D501080114013281640180419161A021B081D011E0A1F0421422214274029243004311233403480360337403828394058
:401140003A024710564057025A085D026580674869146A807094720273288740C087C2CFC41FCA06CC0FCE0FD020D682D8B000090210041C05320602070109670B08135DCF
:401180001420156716031718221024102506260C2709280C2A112C14321F3360351E3620370139083B203E403F444035410245E046C047B0482A49FF4AFF4BFF4EF04F443B
:4011C000500C54015604580459045A045B045F0166C06A406B02850687088C448E318F109080931095089703980199089A0E9B05A022A251A30FA4E7A8E7AD02B060B1101C
:40120000B280B307B407B50BB618BB28BE40BF01C062C104C203C401C6ECC80CC9FFCAFFCBFFCC62CDA0CEF0CF41D00CD804D904DA04DF01E640E702E910EA30EB10ED10B0
:40124000EE10EF12004004040501080C0A940E2011161641172818411A141E22202421082364252026402718282029012A402B222F20312832013501370838843C203F040B
:4012800040894308472849904B404D014E0250405110560157205C205D015E885F02678087408A018B088E0191149282944095209604988099119C049D809F12A101A20618
:4012C000A302A961AA10C031C22AC4FECA49CCC7CE6AD06FD214D6F0D880E210E61003405A806E8071208640C010D480DA80DC20E640620485208E449680A520AB40D84020
:40130000E210EC8018808C40C608E60810011101F8B5C046F8BC08BC9E46704779020000B9020000F8B5C046F8BC08BC9E467047650200000000000048130000D000002098
:40134000200000009000000000000000F80F0000F40F000000366E0118000000C05D00000000E02E00000000000000000000000000000000000000000000000000000000CB
:4013800000100020911300002D1800002D18000080B500AF024B83F3088800F051FAC0460010002080B500AF124B124A12688021C9020A431A60032000F0CAFA0D4B0D4A57
:4013C00012680D490A401A600C4B0D4A1A600D4B10221A600C4B802212061A60054B00221A600A4B0A4A1A600A4B00221A60C046BD4680BD00010B40FFFFFBFF04010B40C8
:40140000060000802002024008010B4000000240B70B00800C020B4080B582B000AF72B6FB1D00221A7022E0FB1D1A7813005B009B185B00314A9B183B603B681A78597898
:4014400009020A43997809040A43DB781B06134318003B681A795B791B0213439BB2190000F08CF9FB1D1A78FB1D01321A70FB1D1B78012BD8D9224A224B1100180000F076
:401480008DF9214BEE2212021A60204B992212041A601F4B802212061A601E4B992212041A601D4B992212041A601C4B992212041A601B4A1A4B1B78DBB206210B43DBB243
:4014C0001370184B80221A60174B8022D2031A60164B802212021A60154BC02252031A60144B154A1A60154B154A1A60FFF75AFF00F096F9C046BD4602B080BD6427000033
:4015000074270000702700000C00014000500F4004500F4010500F4020500F4030500F4000700F4000000440080004400C0004400801044008020440B66DDB000803044026
:40154000800D1B0010B5064C2378002B07D1054B002B02D0044800E000BF0123237010BD60010020000000002C270000084B10B5002B03D00749084800E000BF074803686F
:40158000002B00D110BD064B002BFBD09847F9E700000000640100202C270000D00000200000000080B500AF00F088FB62B600F057FE00F0EBFE012000F01CFB002000F0CF
:4015C0004DFF012000F072FF00F040FC0C2000F0DDFC0021002000F04BFC3B4B180000F081FC0021012000F043FC384B180000F079FC0E21012000F03BFC354B180000F009
:4016000071FC00F0DDFA334B1B68002B0CD1324B1B685A1D304B1A6000F06AF8322000F095FA2C4B01221A602C4B1B68012B15D12A4B00221A602A4B1B685A1C284B1A6052
:40164000274B1B683B2B09DD254B00221A60224B1B685A1C204B1A6000F04AF8012000F06DFE0621012000F003FC1E4B180000F039FC0621012000F0FBFB1B4B1B681B0411
:401680001B0C180000F08EFD184B180000F02AFC114B1B681B041B0C180000F083FD134B180000F01FFC0E4B1B681B041B0C180000F078FDFA239B00180000F047FA0020F1
:4016C00000F03CFE9DE7C04630270000442700004C270000D4000020DC0000207C010020D800002050270000E00000205C27000080B500AF1C4B1B683B2B31DD1A4B0022B9
:401700001A601A4B1B685A1C184B1A60174B1B680C2B02DD154B01221A60144B1B680C2B1ED1114B1B68002B1AD1114B1B6801225A400F4B1A600E4B1B68002B08D10E2180
:40174000012000F095FB0B4B180000F0CBFB07E00E21012000F08CFB074B180000F0C2FBC046BD4680BDC046DC000020E0000020E4000020602700004C27000080B582B032
:4017800000AF786039603A687B680021180000F0C5FFC046BD4602B080BDC04680B586B000AF7860396000233B6100237B612FE07B699B007A68D3181B68BB600F23FB1812
:4017C000BA681A70BB68FF229343BB6018E03B695B003A68D3181B781A00BB68D31819003B695B003A68D3185B780B703B6901333B610F23FB181A780F23FB18013A1A7081
:401800000F23FB181B78002BE1D17B6901337B617B69002BCCD0C046BD4606B080BDC04680B500AFC046BD4680BDC04680B500AF00F048FF03001B680C2B00D1FEE7FEE7AF
:4018400080B586B000AF224B7B61224B3B61204B7B6135E03B691B68FB603B695B68BB603B699B683B6000237B600CE0FB681A68BB681A60BB680433BB60FB680433FB6084
:401880007B6804337B607A683B689A42EED13B69DB683B6000237B6008E0BB6800221A60BB680433BB607B6804337B607A683B689A42F2D13B6910333B617B69013B7B61DF
:4018C0007B69002BC6D100F003FFFFF76BFEFEE7010000001028000080B582B000AF00237B600FE07B68032B04D8144B7A689200D35800E0124B134A796889008B507B6823
:4019000001337B607B682F2BECD9FFF785FD0E4B00221A600D4B1B68002B02D10B4B00221A608023DB058022D205126801210A431A60C046BD4602B080BDC046801300006E
:401940002D18000000000020C8000020C000002090B585B000AF78600C23FC1800F0DAFD030023707B68022B00D8AFE07B68302B00D9ABE05C4B1B78DBB21A007B689A42E0
:401980000AD35A4A0F23FB1812781A70584A0E23FB1812781A703FE0564B1B78DBB21A007B689A420AD3544A0F23FB1812781A70524A0E23FB1812781A702DE0504B1B7897
:4019C000DBB21A007B689A420AD34E4A0F23FB1812781A704C4A0E23FB1812781A701BE04A4B1B78DBB21A007B689A420AD3484A0F23FB1812781A70464A0E23FB18127816
:401A00001A7009E0444A0F23FB1812781A70434A0E23FB1812781A707B68DA1E0B23FB183F498A5C1A700B23FB181B782F2B0DD97B682A2B0AD93B4B19221A60052000F0D4
:401A40005FFD0D23FB1819221A7007E0354B1B68DAB20D23FB183F210A401A700B23FA180D23FB1812781B789A4208D22D4B7A68033A2B498A5C1A60052000F041FD2A4B8C
:401A80007A6826498C4662441278D2B21A60274B0F22BA1812781A60254B0E22BA1812781A60052000F078F80B23FA180D23FB1812781B789A420CD91A4B7A68033A18491B
:401AC0008A5C1A60052000F01BFD02E0002000F031F80C23FB181B78180000F01FFDC046BD4605B090BDC046C0F1FF0FC1F1FF0FC2F1FF0FC3F1FF0FC4F1FF0FC5F1FF0FAB
:401B0000C6F1FF0FC7F1FF0FC8F1FF0FC9F1FF0FCAF1FF0FCBF1FF0FCCF1FF0FCDF1FF0F782700002CFF0B4028FF0B401CFF0B4020FF0B4080B582B000AF0200FB1D1A7050
:401B400001BEC046BD4602B080BDC04680B582B000AF786009E00D4B1B68180000F0D0FC7B680B4A944663447B607A6880231B029A42F0D8074B1B687A685343180000F0F3
:401B8000BFFCC046BD4602B080BDC046F40000200080FFFFEC00002080B582B000AF0200BB1D1A80BB1D1B88044A12785343180000F0A6FCC046BD4602B080BDF0000020A9
:401BC00090B583B000AFFC1D00F0A4FC03002370074B074A126804218A431A6030BFFB1D1B78180000F09AFCC046BD4603B090BD10ED00E080B584B000AF0200FB1D1A701C
:401C00000E4B1B68DAB20F23FB1801218A431A70FB1D1B7801221340D9B20F23FB180F22BA1812780A431A70044B0F22BA1812781A60C046BD4604B080BDC046000204408D
:401C400080B500AF0C4B802252021A600B4B0C221A60012000F092F8FA239B00180000F04FF8782000F05CF8FA239B00180000F037F8C046BD4680BD000105402401054058
:401C800090B583B000AFFC1D00F044FC03002370094B094A126801210A431A60FB1D1B78180000F03BFC1821012000F049F8C046BD4603B090BDC0460000054080B500AF67
:401CC000064B1B78002B04D1FFF7BAFF034B01221A70FFF7D5FFC046BD4680BD8001002080B582B000AF7860044B7A681204120C1A60C046BD4602B080BDC046080105408C
:401D000080B582B000AF7860044B7A681204120C1A60C046BD4602B080BDC0461401054080B582B000AF7860044B7A681204120C1A60C046BD4602B080BDC0460C01054061
:401D400090B585B000AF786039600F23FC1800F0E1FB03002370084B79683A6891400A001A600F23FB181B78180000F0D7FBC046BD4605B090BDC0460800054080B582B07F
:401D800000AF7860034B7A681A60C046BD4602B080BDC0463801054080B582B000AF7860034B7A681A60C046BD4602B080BDC0463001054080B500AF2820FFF7C7FE032060
:401DC00000F0C2F90520FFF7C1FE032000F0BCF90F20FFF7BBFE032000F0B6F90120FFF7B5FE022000F0B0F90520FFF7AFFE062000F0CCF80E2000F0C9F82C2000F0C6F8F6
:401E0000082000F0C3F8012000F0C0F80C2000F0BDF8032000F0BAF80520FFF797FE034B180000F07FFBC046BD4680BDA827000080B500AF0C2000F0A9F8034B01221A703F
:401E4000C046BD4680BDC0468101002080B500AF064B1B78002B04D1FFF7ACFF034B01221A70FFF7E5FFC046BD4680BD8201002080B582B000AF0200FB1D1A70BB1D0A1C95
:401E80001A70FB1D1B78012B10D002DC002B05D024E0022B12D0032B18D01FE0BB1D1B78803BDBB2180000F071F817E0BB1D1B78403BDBB2180000F069F80FE0BB1D1B788A
:401EC0006C3BDBB2180000F061F807E0BB1D1B782C3BDBB2180000F059F8C046C046BD4602B080BD80B584B000AF78600F23FB1801221A700E23FB187A6812781A7015E09F
:401F00000E23FB181B78180000F01AF80F23FB181B787A68D2180E23FB1812781A700F23FB181A780F23FB1801321A700E23FB181B78002BE4D1C046BD4604B080BDC04624
:401F400080B584B000AF0200FB1D1A7000F044F80F23FB18FA1D127812091A700F23FB181B78180000F0BAF80F23FB18FA1D12780F210A401A700F23FB181B78180000F092
:401F8000ADF8C046BD4604B080BDC04680B584B000AF0200FB1D1A7000F01EF80F23FB18FA1D127812091A700F23FB181B78180000F0CAF80F23FB18FA1D12780F210A402D
:401FC0001A700F23FB181B78180000F0BDF8C046BD4604B080BDC04680B582B000AFCA235B007B60374B374A1268FE218A431A60354B1B68354A13403B60334B3A68344999
:402000000A431A602F4B2F4A126840218A431A602C4B2C4A126880210A431A600020FFF7BBFD284B274A126820210A431A600120FFF7B2FD274B1B683B60224B214A126819
:4020400020218A431A600020FFF7A6FD3B68102213403B601B4B1B4A126820210A431A600120FFF799FD174B164A126820218A431A603B68002B02D10A20FFF78DFD7B6870
:40208000013B7B603B68002B02D07B68002BC5D10C4B0C4A126880218A431A60094B094A1268FE218A431A60074B1B68074A13403B60054B3A6808490A431A60C046BD4608
:4020C00002B080BD00020440080204400780FFFF4812000004020440B06D000080B582B000AF0200FB1D1A70164B164A126840210A431A60134B134A126880218A431A60DD
:402100000020FFF749FD0F4B0E4A12681E218A431A600C4A0B4B1968FB1D1B78DB18DBB220200343DBB20B4313600120FFF734FD044B044A126820218A431A60C046BD4675
:4021400002B080BD0002044080B582B000AF0200FB1D1A70124B124A1268C0218A431A600F4B0F4A12681E218A431A600C4A0C4B1968FB1D1B78DB18DBB220200343DBB2F6
:402180000B4313600120FFF707FD054B044A126820218A431A60C046BD4602B080BDC0460002044080B586B000AF78601723FB180A221A701723FB181B780822BA1800216D
:4021C000D1541723FB181A781723FB18013A1A7021E07B680A21180000F06EFA0B00DAB21623FB1830321A701723FB181B780822BA18162179180978D1547B680A2118000B
:4022000000F0D4F903007B601723FB181A781723FB18013A1A707B68092BDAD87B680A21180000F049FA0B00DAB21623FB1830321A701723FB181B780822BA18162179187D
:402240000978D1541723FB181B780822BA18D3181800FFF747FEC046BD4606B080BDC04680B500AF00F05EF8054B180000F018F8032000F023F800F049F8C046BD4680BD65
:402280008522000080B500AF0120FFF785FD034B01221A60C046BD4680BDC0467C01002080B582B000AF7860034B80217A685A50C046BD4602B080BD0000002090B585B02B
:4022C00000AF0200FB1D1A700623FB600B23FC1800F020F9030023700B4B0B4A1268C0218A431100FA1D1078FA68904002000A431A600B23FB181B78180000F00FF9C046BE
:40230000BD4605B090BDC04610E400E080B500AF034B802252021A60C046BD4680BDC04600E100E080B500AF034B802252021A60C046BD4680BDC04680E100E080B584B077
:4023400000AF0200FB1D1A700F4B1B68DAB20F23FB1840218A431A70FB1D1B789B01DBB240221340D9B20F23FB180F22BA1812780A431A70044B0F22BA1812781A60C0468B
:40238000BD4604B080BDC0460001044080B500AF00F05AF8054B180000F016F8032000F021F800F047F8C046BD4680BDB123000080B500AF00F0E2F8024B00221A60C04640
:4023C000BD4680BDD400002080B582B000AF7860034B7A681A64C046BD4602B080BDC0460000002090B585B000AF0200FB1D1A700623FB600B23FC1800F08CF80300237052
:402400000B4B0B4A1268C0218A431100FA1D1078FA68904002000A431A600B23FB181B78180000F07BF8C046BD4605B090BDC04600E400E080B500AF024B01221A60C04626
:40244000BD4680BD00E100E080B500AF024B01221A60C046BD4680BD80E100E080B584B000AF0200FB1D1A700F4B1B68DAB20F23FB1840218A431A70FB1D1B789B01DBB210
:4024800040221340D9B20F23FB180F22BA1812780A431A70044B0F22BA1812781A60C046BD4604B080BDC0460003044080B584B000AF0200FB1D1A700F4B1B68DAB20F233F
:4024C000FB1820218A431A70FB1D1B785B01DBB220221340D9B20F23FB180F22BA1812780A431A70044B0F22BA1812781A60C046BD4604B080BDC046000304400000000037
:402500000230800804D0C0460138FDD1C046C046C0467047EFF3108072B6704780F310887047C04680B584B000AF7860FFF754FD4020FFF72BFD0F23FB1800221A700FE089
:402540000F23FB181B787A68D3181B781800FFF7F7FC0F23FB181A780F23FB1801321A700F23FB181B783F2BEAD9FFF735FD8020FFF70CFDC046BD4604B080BD80B582B01C
:4025800000AF094B1B68DAB2FB1D7F218A431A70054BFA1D12781A60FB1D1B78DB09DBB21800BD4602B080BD10000440002243088B4274D303098B425FD3030A8B4244D398
:4025C000030B8B4228D3030C8B420DD3FF22090212BA030C8B4202D31212090265D0030B8B4219D300E0090AC30B8B4201D3CB03C01A5241830B8B4201D38B03C01A5241AE
:40260000430B8B4201D34B03C01A5241030B8B4201D30B03C01A5241C30A8B4201D3CB02C01A5241830A8B4201D38B02C01A5241430A8B4201D34B02C01A5241030A8B4274
:4026400001D30B02C01A5241CDD2C3098B4201D3CB01C01A524183098B4201D38B01C01A524143098B4201D34B01C01A524103098B4201D30B01C01A5241C3088B4201D369
:40268000CB00C01A524183088B4201D38B00C01A524143088B4201D34B00C01A5241411A00D20146524110467047FFE701B5002000F006F802BDC0460029F7D076E7704793
:4026C0007047C046014B18687047C0465C0100200E4B70B500251E000D4CE41AA410A54204D0AB00F35898470135F8E700F07EF8084B00251E00084CE41AA410A54204D0E9
:40270000AB00F35898470135F8E770BDF8270000F8270000F82700000028000003008218934202D019700133FAE77047000000002050536F432020536F6674776172652044
:4027400000000000436C6F636B000000504D00002020202020202020000000003A000000414D000000300F40000400400F40000402600F4002011101030405060708090AF8
:402780000B0C0E0F101112131415161718191B1C1D1E1F2021222325262728292A2B2E2F30313233343500000000000000000000101010101010101018181818181818181D
:4027C0001C1C1C1C1C1C1C1C1E1E1E1E1E1E1E1E1F1F1F1F1F1F1F1F0000000000000000000000000000000043000000F8B5C046F8BC08BC9E4670476D150000D918000095
:40280000F8B5C046F8BC08BC9E4670474515000020280000D000002090000000280000000000000001000000050000001A0000000800000001000000C0C62D00B80B0000E9
:40284000030000000000DC05010000000000000000000000000000000000000000000000000000000000000000000000E82700000000000000000000000000000000000064
:402880000000000000000000000000000000000000000000000000000000000000000000000000000000000000000000FC00002000000000000000000000000000000000FC
:4028C00000000000000000000000000000000000000000000000000000000000000000000000000000000000000000000000000000000000000000000000000000000000D8
:402900000010002011290000AD2D0000AD2D000080B500AF024B83F3088800F051FAC0460010002080B500AF124B124A12688021C9020A431A60032000F0CAFA0D4B0D4A01
:4029400012680D490A401A600C4B0D4A1A600D4B10221A600C4B802212061A60054B00221A600A4B0A4A1A600A4B00221A60C046BD4680BD00010B40FFFFFBFF04010B4032
:40298000060000802002024008010B4000000240B70B00800C020B4080B582B000AF72B6FB1D00221A7022E0FB1D1A7813005B009B185B00314A9B183B603B681A78597803
:4029C00009020A43997809040A43DB781B06134318003B681A795B791B0213439BB2190000F08CF9FB1D1A78FB1D01321A70FB1D1B78012BD8D9224A224B1100180000F0E1
:402A00008DF9214BEE2212021A60204B992212041A601F4B802212061A601E4B992212041A601D4B992212041A601C4B992212041A601B4A1A4B1B78DBB206210B43DBB2AD
:402A40001370184B80221A60174B8022D2031A60164B802212021A60154BC02252031A60144B154A1A60154B154A1A60FFF75AFF00F096F9C046BD4602B080BDE43C000008
:402A8000F43C0000F03C00000C00014000500F4004500F4010500F4020500F4030500F4000700F4000000440080004400C0004400801044008020440B66DDB000803044067
:402AC000800D1B0010B5064C2378002B07D1054B002B02D0044800E000BF0123237010BD6001002000000000AC3C0000084B10B5002B03D00749084800E000BF0748036845
:402B0000002B00D110BD064B002BFBD09847F9E70000000064010020AC3C0000D00000200000000080B500AF00F088FB62B600F057FE00F0EBFE012000F01CFB002000F0A4
:402B40004DFF012000F072FF00F040FC0C2000F0DDFC0021002000F04BFC3B4B180000F081FC0021012000F043FC384B180000F079FC0E21012000F03BFC354B180000F073
:402B800071FC00F0DDFA334B1B68002B0CD1324B1B685A1D304B1A6000F06AF8322000F095FA2C4B01221A602C4B1B68012B15D12A4B00221A602A4B1B685A1C284B1A60BD
:402BC000274B1B683B2B09DD254B00221A60224B1B685A1C204B1A6000F04AF8012000F06DFE0621012000F003FC1E4B180000F039FC0621012000F0FBFB1B4B1B681B047C
:402C00001B0C180000F08EFD184B180000F02AFC114B1B681B041B0C180000F083FD134B180000F01FFC0E4B1B681B041B0C180000F078FDFA239B00180000F047FA00205B
:402C400000F03CFE9DE7C046B03C0000C43C0000CC3C0000D4000020DC0000207C010020D8000020D03C0000E0000020DC3C000080B500AF1C4B1B683B2B31DD1A4B00223A
:402C80001A601A4B1B685A1C184B1A60174B1B680C2B02DD154B01221A60144B1B680C2B1ED1114B1B68002B1AD1114B1B6801225A400F4B1A600E4B1B68002B08D10E21EB
:402CC000012000F095FB0B4B180000F0CBFB07E00E21012000F08CFB074B180000F0C2FBC046BD4680BDC046DC000020E0000020E4000020E03C0000CC3C000080B582B073
:402D000000AF786039603A687B680021180000F0C5FFC046BD4602B080BDC04680B586B000AF7860396000233B6100237B612FE07B699B007A68D3181B68BB600F23FB187C
:402D4000BA681A70BB68FF229343BB6018E03B695B003A68D3181B781A00BB68D31819003B695B003A68D3185B780B703B6901333B610F23FB181A780F23FB18013A1A70EB
:402D80000F23FB181B78002BE1D17B6901337B617B69002BCCD0C046BD4606B080BDC04680B500AFC046BD4680BDC04680B500AF00F048FF03001B680C2B00D1FEE7FEE71A
:402DC00080B586B000AF224B7B61224B3B61204B7B6135E03B691B68FB603B695B68BB603B699B683B6000237B600CE0FB681A68BB681A60BB680433BB60FB680433FB60EF
:402E00007B6804337B607A683B689A42EED13B69DB683B6000237B6008E0BB6800221A60BB680433BB607B6804337B607A683B689A42F2D13B6910333B617B69013B7B6149
:402E40007B69002BC6D100F003FFFFF76BFEFEE701000000903D000080B582B000AF00237B600FE07B68032B04D8144B7A689200D35800E0124B134A796889008B507B68F8
:402E800001337B607B682F2BECD9FFF785FD0E4B00221A600D4B1B68002B02D10B4B00221A608023DB058022D205126801210A431A60C046BD4602B080BDC0460029000043
:402EC000AD2D000000000020C8000020C000002090B585B000AF78600C23FC1800F0DAFD030023707B68022B00D8AFE07B68302B00D9ABE05C4B1B78DBB21A007B689A42B6
:402F00000AD35A4A0F23FB1812781A70584A0E23FB1812781A703FE0564B1B78DBB21A007B689A420AD3544A0F23FB1812781A70524A0E23FB1812781A702DE0504B1B7801
:402F4000DBB21A007B689A420AD34E4A0F23FB1812781A704C4A0E23FB1812781A701BE04A4B1B78DBB21A007B689A420AD3484A0F23FB1812781A70464A0E23FB18127880
:402F80001A7009E0444A0F23FB1812781A70434A0E23FB1812781A707B68DA1E0B23FB183F498A5C1A700B23FB181B782F2B0DD97B682A2B0AD93B4B19221A60052000F03F
:402FC0005FFD0D23FB1819221A7007E0354B1B68DAB20D23FB183F210A401A700B23FA180D23FB1812781B789A4208D22D4B7A68033A2B498A5C1A60052000F041FD2A4BF7
:403000007A6826498C4662441278D2B21A60274B0F22BA1812781A60254B0E22BA1812781A60052000F078F80B23FA180D23FB1812781B789A420CD91A4B7A68033A184985
:403040008A5C1A60052000F01BFD02E0002000F031F80C23FB181B78180000F01FFDC046BD4605B090BDC046C0F1FF0FC1F1FF0FC2F1FF0FC3F1FF0FC4F1FF0FC5F1FF0F15
:40308000C6F1FF0FC7F1FF0FC8F1FF0FC9F1FF0FCAF1FF0FCBF1FF0FCCF1FF0FCDF1FF0FF83C00002CFF0B4028FF0B401CFF0B4020FF0B4080B582B000AF0200FB1D1A7026
:4030C00001BEC046BD4602B080BDC04680B582B000AF786009E00D4B1B68180000F0D0FC7B680B4A944663447B607A6880231B029A42F0D8074B1B687A685343180000F05E
:40310000BFFCC046BD4602B080BDC046F40000200080FFFFEC00002080B582B000AF0200BB1D1A80BB1D1B88044A12785343180000F0A6FCC046BD4602B080BDF000002013
:4031400090B583B000AFFC1D00F0A4FC03002370074B074A126804218A431A6030BFFB1D1B78180000F09AFCC046BD4603B090BD10ED00E080B584B000AF0200FB1D1A7086
:403180000E4B1B68DAB20F23FB1801218A431A70FB1D1B7801221340D9B20F23FB180F22BA1812780A431A70044B0F22BA1812781A60C046BD4604B080BDC04600020440F8
:4031C00080B500AF0C4B802252021A600B4B0C221A60012000F092F8FA239B00180000F04FF8782000F05CF8FA239B00180000F037F8C046BD4680BD0001054024010540C3
:4032000090B583B000AFFC1D00F044FC03002370094B094A126801210A431A60FB1D1B78180000F03BFC1821012000F049F8C046BD4603B090BDC0460000054080B500AFD1
:40324000064B1B78002B04D1FFF7BAFF034B01221A70FFF7D5FFC046BD4680BD8001002080B582B000AF7860044B7A681204120C1A60C046BD4602B080BDC04608010540F6
:4032800080B582B000AF7860044B7A681204120C1A60C046BD4602B080BDC0461401054080B582B000AF7860044B7A681204120C1A60C046BD4602B080BDC0460C010540CC
:4032C00090B585B000AF786039600F23FC1800F0E1FB03002370084B79683A6891400A001A600F23FB181B78180000F0D7FBC046BD4605B090BDC0460800054080B582B0EA
:4033000000AF7860034B7A681A60C046BD4602B080BDC0463801054080B582B000AF7860034B7A681A60C046BD4602B080BDC0463001054080B500AF2820FFF7C7FE0320CA
:4033400000F0C2F90520FFF7C1FE032000F0BCF90F20FFF7BBFE032000F0B6F90120FFF7B5FE022000F0B0F90520FFF7AFFE062000F0CCF80E2000F0C9F82C2000F0C6F860
:40338000082000F0C3F8012000F0C0F80C2000F0BDF8032000F0BAF80520FFF797FE034B180000F07FFBC046BD4680BD283D000080B500AF0C2000F0A9F8034B01221A7014
:4033C000C046BD4680BDC0468101002080B500AF064B1B78002B04D1FFF7ACFF034B01221A70FFF7E5FFC046BD4680BD8201002080B582B000AF0200FB1D1A70BB1D0A1C00
:403400001A70FB1D1B78012B10D002DC002B05D024E0022B12D0032B18D01FE0BB1D1B78803BDBB2180000F071F817E0BB1D1B78403BDBB2180000F069F80FE0BB1D1B78F4
:403440006C3BDBB2180000F061F807E0BB1D1B782C3BDBB2180000F059F8C046C046BD4602B080BD80B584B000AF78600F23FB1801221A700E23FB187A6812781A7015E009
:403480000E23FB181B78180000F01AF80F23FB181B787A68D2180E23FB1812781A700F23FB181A780F23FB1801321A700E23FB181B78002BE4D1C046BD4604B080BDC0468F
:4034C00080B584B000AF0200FB1D1A7000F044F80F23FB18FA1D127812091A700F23FB181B78180000F0BAF80F23FB18FA1D12780F210A401A700F23FB181B78180000F0FD
:40350000ADF8C046BD4604B080BDC04680B584B000AF0200FB1D1A7000F01EF80F23FB18FA1D127812091A700F23FB181B78180000F0CAF80F23FB18FA1D12780F210A4097
:403540001A700F23FB181B78180000F0BDF8C046BD4604B080BDC04680B582B000AFCA235B007B60374B374A1268FE218A431A60354B1B68354A13403B60334B3A68344903
:403580000A431A602F4B2F4A126840218A431A602C4B2C4A126880210A431A600020FFF7BBFD284B274A126820210A431A600120FFF7B2FD274B1B683B60224B214A126884
:4035C00020218A431A600020FFF7A6FD3B68102213403B601B4B1B4A126820210A431A600120FFF799FD174B164A126820218A431A603B68002B02D10A20FFF78DFD7B68DB
:40360000013B7B603B68002B02D07B68002BC5D10C4B0C4A126880218A431A60094B094A1268FE218A431A60074B1B68074A13403B60054B3A6808490A431A60C046BD4672
:4036400002B080BD00020440080204400780FFFF4812000004020440B06D000080B582B000AF0200FB1D1A70164B164A126840210A431A60134B134A126880218A431A6047
:403680000020FFF749FD0F4B0E4A12681E218A431A600C4A0B4B1968FB1D1B78DB18DBB220200343DBB20B4313600120FFF734FD044B044A126820218A431A60C046BD46E0
:4036C00002B080BD0002044080B582B000AF0200FB1D1A70124B124A1268C0218A431A600F4B0F4A12681E218A431A600C4A0C4B1968FB1D1B78DB18DBB220200343DBB261
:403700000B4313600120FFF707FD054B044A126820218A431A60C046BD4602B080BDC0460002044080B586B000AF78601723FB180A221A701723FB181B780822BA180021D7
:40374000D1541723FB181A781723FB18013A1A7021E07B680A21180000F06EFA0B00DAB21623FB1830321A701723FB181B780822BA18162179180978D1547B680A21180075
:4037800000F0D4F903007B601723FB181A781723FB18013A1A707B68092BDAD87B680A21180000F049FA0B00DAB21623FB1830321A701723FB181B780822BA1816217918E8
:4037C0000978D1541723FB181B780822BA18D3181800FFF747FEC046BD4606B080BDC04680B500AF00F05EF8054B180000F018F8032000F023F800F049F8C046BD4680BDD0
:403800000538000080B500AF0120FFF785FD034B01221A60C046BD4680BDC0467C01002080B582B000AF7860034B80217A685A50C046BD4602B080BD0000002090B585B0FF
:4038400000AF0200FB1D1A700623FB600B23FC1800F020F9030023700B4B0B4A1268C0218A431100FA1D1078FA68904002000A431A600B23FB181B78180000F00FF9C04628
:40388000BD4605B090BDC04610E400E080B500AF034B802252021A60C046BD4680BDC04600E100E080B500AF034B802252021A60C046BD4680BDC04680E100E080B584B0E2
:4038C00000AF0200FB1D1A700F4B1B68DAB20F23FB1840218A431A70FB1D1B789B01DBB240221340D9B20F23FB180F22BA1812780A431A70044B0F22BA1812781A60C046F6
:40390000BD4604B080BDC0460001044080B500AF00F05AF8054B180000F016F8032000F021F800F047F8C046BD4680BD3139000080B500AF00F0E2F8024B00221A60C04614
:40394000BD4680BDD400002080B582B000AF7860034B7A681A64C046BD4602B080BDC0460000002090B585B000AF0200FB1D1A700623FB600B23FC1800F08CF803002370BC
:403980000B4B0B4A1268C0218A431100FA1D1078FA68904002000A431A600B23FB181B78180000F07BF8C046BD4605B090BDC04600E400E080B500AF024B01221A60C04691
:4039C000BD4680BD00E100E080B500AF024B01221A60C046BD4680BD80E100E080B584B000AF0200FB1D1A700F4B1B68DAB20F23FB1840218A431A70FB1D1B789B01DBB27B
:403A000040221340D9B20F23FB180F22BA1812780A431A70044B0F22BA1812781A60C046BD4604B080BDC0460003044080B584B000AF0200FB1D1A700F4B1B68DAB20F23A9
:403A4000FB1820218A431A70FB1D1B785B01DBB220221340D9B20F23FB180F22BA1812780A431A70044B0F22BA1812781A60C046BD4604B080BDC0460003044000000000A1
:403A80000230800804D0C0460138FDD1C046C046C0467047EFF3108072B6704780F310887047C04680B584B000AF7860FFF754FD4020FFF72BFD0F23FB1800221A700FE0F4
:403AC0000F23FB181B787A68D3181B781800FFF7F7FC0F23FB181A780F23FB1801321A700F23FB181B783F2BEAD9FFF735FD8020FFF70CFDC046BD4604B080BD80B582B087
:403B000000AF094B1B68DAB2FB1D7F218A431A70054BFA1D12781A60FB1D1B78DB09DBB21800BD4602B080BD10000440002243088B4274D303098B425FD3030A8B4244D302
:403B4000030B8B4228D3030C8B420DD3FF22090212BA030C8B4202D31212090265D0030B8B4219D300E0090AC30B8B4201D3CB03C01A5241830B8B4201D38B03C01A524118
:403B8000430B8B4201D34B03C01A5241030B8B4201D30B03C01A5241C30A8B4201D3CB02C01A5241830A8B4201D38B02C01A5241430A8B4201D34B02C01A5241030A8B42DF
:403BC00001D30B02C01A5241CDD2C3098B4201D3CB01C01A524183098B4201D38B01C01A524143098B4201D34B01C01A524103098B4201D30B01C01A5241C3088B4201D3D4
:403C0000CB00C01A524183088B4201D38B00C01A524143088B4201D34B00C01A5241411A00D20146524110467047FFE701B5002000F006F802BDC0460029F7D076E77047FD
:403C40007047C046014B18687047C0465C0100200E4B70B500251E000D4CE41AA410A54204D0AB00F35898470135F8E700F07EF8084B00251E00084CE41AA410A54204D053
:403C8000AB00F35898470135F8E770BD783D0000783D0000783D0000803D000003008218934202D019700133FAE77047000000002050536F432020536F6674776172652058
:403CC00000000000436C6F636B000000504D00002020202020202020000000003A000000414D000000300F40000400400F40000402600F4002011101030405060708090A63
:403D00000B0C0E0F101112131415161718191B1C1D1E1F2021222325262728292A2B2E2F303132333435000000000000000000001010101010101010181818181818181887
:403D40001C1C1C1C1C1C1C1C1E1E1E1E1E1E1E1E1F1F1F1F1F1F1F1F0000000000000000000000000000000043000000F8B5C046F8BC08BC9E467047ED2A0000592E0000D4
:403D8000F8B5C046F8BC08BC9E467047C52A0000A03D0000D000002090000000280000000000000001000000050000001A0000000800000001000000C0C62D00B80B00002A
:403DC000030000000000DC05010000000000000000000000000000000000000000000000000000000000000000000000683D00000000000000000000000000000000000039
:403E00000000000000000000000000000000000000000000000000000000000000000000000000000000000000000000FC0000200000000000000000000000000000000066
:403E40000000000000000000000000000000000000000000000000000000000000000000000000000000000000000000000000000000000000000000000000000000000042
:403E800000100020913E0000454000004540000080B500AF024B83F3088800F0DDF8C0460010002080B500AF0F4B0F4A12688021C9020A431A60032000F056F90A4B0A4A78
:403EC00012680A490A401A60094B0A4A1A600A4B802212061A60044B00221A60074B00221A60C046BD4680BD00010B40FFFFFBFF04010B400600008008010B400C020B40A0
:403F000080B582B000AF72B6FB1D00221A7022E0FB1D1A7813005B009B185B001E4A9B183B603B681A78597809020A43997809040A43DB781B06134318003B681A795B79EC
:403F40001B0213439BB2190000F066F8FB1D1A78FB1D01321A70FB1D1B78012BD8D90F4BEE2212021A600E4B992212041A600D4A0C4B1B78DBB206210B43DBB213700A4BCF
:403F8000D82212011A60FFF78DFF00F055F8C046BD4602B080BDC046204400000C00014030500F4000700F400803044010B5064C2378002B07D1054B002B02D0044800E001
:403FC00000BF0123237010BD50010020000000001C440000084B10B5002B03D00749084800E000BF07480368002B00D110BD064B002BFBD09847F9E700000000540100205A
:404000001C440000D00000200000000080B500AF00231800BD4680BD80B582B000AF786039603A687B680021180000F0EFF9C046BD4602B080BDC04680B500AFC046BD46C9
:4040400080BDC04680B500AF00F0B4F903001B680C2B00D1FEE7FEE780B586B000AF224B7B61224B3B61204B7B6135E03B691B68FB603B695B68BB603B699B683B600023F3
:404080007B600CE0FB681A68BB681A60BB680433BB60FB680433FB607B6804337B607A683B689A42EED13B69DB683B6000237B6008E0BB6800221A60BB680433BB607B68B9
:4040C00004337B607A683B689A42F2D13B6910333B617B69013B7B617B69002BC6D100F06FF9FFF793FFFEE7010000008044000080B582B000AF00237B600FE07B68032BC7
:4041000004D8144B7A689200D35800E0124B134A796889008B507B6801337B607B682F2BECD9FFF7EDFE0E4B00221A600D4B1B68002B02D10B4B00221A608023DB0580220C
:40414000D205126801210A431A60C046BD4602B080BDC046803E00004540000000000020C8000020C000002090B585B000AF78600C23FC1800F016F9030023707B68022BF3
:4041800000D8AFE07B68302B00D9ABE05C4B1B78DBB21A007B689A420AD35A4A0F23FB1812781A70584A0E23FB1812781A703FE0564B1B78DBB21A007B689A420AD3544A4E
:4041C0000F23FB1812781A70524A0E23FB1812781A702DE0504B1B78DBB21A007B689A420AD34E4A0F23FB1812781A704C4A0E23FB1812781A701BE04A4B1B78DBB21A004B
:404200007B689A420AD3484A0F23FB1812781A70464A0E23FB1812781A7009E0444A0F23FB1812781A70434A0E23FB1812781A707B68DA1E0B23FB183F498A5C1A700B2318
:40424000FB181B782F2B0DD97B682A2B0AD93B4B19221A60052000F09BF80D23FB1819221A7007E0354B1B68DAB20D23FB183F210A401A700B23FA180D23FB1812781B78C5
:404280009A4208D22D4B7A68033A2B498A5C1A60052000F07DF82A4B7A6826498C4662441278D2B21A60274B0F22BA1812781A60254B0E22BA1812781A60052000F052F83F
:4042C0000B23FA180D23FB1812781B789A420CD91A4B7A68033A18498A5C1A60052000F057F802E0002000F031F80C23FB181B78180000F05BF8C046BD4605B090BDC04658
:40430000C0F1FF0FC1F1FF0FC2F1FF0FC3F1FF0FC4F1FF0FC5F1FF0FC6F1FF0FC7F1FF0FC8F1FF0FC9F1FF0FCAF1FF0FCBF1FF0FCCF1FF0FCDF1FF0F2C4400002CFF0B40CA
:4043400028FF0B401CFF0B4020FF0B4080B582B000AF0200FB1D1A7001BEC046BD4602B080BDC04680B582B000AF0200BB1D1A80BB1D1B88044A12785343180000F008F809
:40438000C046BD4602B080BDDC000020000000000230800804D0C0460138FDD1C046C046C0467047EFF3108072B6704780F310887047C046014B18687047C046480100209A
:4043C0000E4B70B500251E000D4CE41AA410A54204D0AB00F35898470135F8E700F03EF8084B00251E00084CE41AA410A54204D0AB00F35898470135F8E770BD684400000C
:4044000068440000684400007044000003008218934202D019700133FAE770470000000000300F40000400400F400004030405060708090A0B0C0E0F1011121314151617BD
:4044400018191B1C1D1E1F2021222325262728292A2B2E2F3031323334354300F8B5C046F8BC08BC9E467047D53F0000F1400000F8B5C046F8BC08BC9E467047AD3F000050
:4044800090440000D0000020800000002000000000000000C0C62D00B80B0000030000000000DC05010000000000000000000000000000000000000000000000000000003D
:4044C00000000000000000005A440000000000000000000000000000000000000000000000000000000000000000000000000000000000000000000000000000000000001E
:404500000000000000000000E80000200000000000000000000000000000000000000000000000000000000000000000000000000000000000000000000000000000000073
:40454000000000000000000000000000000000000000000000000000000000000000000000000000000000000000000000000000000000000000000000000000000000003B
:404580000010002091450000314800003148000080B500AF024B83F3088800F053F9C0460010002080B500AF0F4B0F4A12688021C9020A431A60032000F0CCF90A4B0A4A95
:4045C00012680A490A401A60094B0A4A1A600A4B802212061A60044B00221A60074B00221A60C046BD4680BD00010B40FFFFFBFF04010B400600008008010B400C020B4099
:4046000080B582B000AF72B6FB1D00221A7022E0FB1D1A7813005B009B185B002E4A9B183B603B681A78597809020A43997809040A43DB781B06134318003B681A795B79D5
:404640001B0213439BB2190000F09AF8FB1D1A78FB1D01321A70FB1D1B78012BD8D91F4A1F4B1100180000F09BF81E4B1E4A1A601E4B992212041A601D4B992212041A60A7
:404680001C4BC02292021A601B4A1B4B1B78DBB23C218B43DBB214210B43DBB21370174A164B1B78DBB216210B43DBB21370144B06221A60134B90221A60134B01221A6070
:4046C000124B134A1A60FFF76DFF00F0ABF8C046BD4602B080BDC046084C00002C4C0000144C00000C00014003EE000000500F4030500F4038500F4001700F4000700F4065
:4047000000000440080004400003044008030440860D000010B5064C2378002B07D1054B002B02D0044800E000BF0123237010BD5001002000000000044C0000084B10B576
:40474000002B03D00749084800E000BF07480368002B00D110BD064B002BFBD09847F9E70000000054010020044C0000D00000200000000080B500AF00231800BD4680BD5F
:4047800080B582B000AF786039603A687B680021180000F02FFAC046BD4602B080BDC04680B586B000AF7860396000233B6100237B612FE07B699B007A68D3181B68BB605B
:4047C0000F23FB18BA681A70BB68FF229343BB6018E03B695B003A68D3181B781A00BB68D31819003B695B003A68D3185B780B703B6901333B610F23FB181A780F23FB18D1
:40480000013A1A700F23FB181B78002BE1D17B6901337B617B69052BCCD9C046BD4606B080BDC04680B500AFC046BD4680BDC04680B500AF00F0B2F903001B680C2B00D112
:40484000FEE7FEE780B586B000AF224B7B61224B3B61204B7B6135E03B691B68FB603B695B68BB603B699B683B6000237B600CE0FB681A68BB681A60BB680433BB60FB681C
:404880000433FB607B6804337B607A683B689A42EED13B69DB683B6000237B6008E0BB6800221A60BB680433BB607B6804337B607A683B689A42F2D13B6910333B617B6935
:4048C000013B7B617B69002BC6D100F06DF9FFF751FFFEE701000000B84C000080B582B000AF00237B600FE07B68032B04D8144B7A689200D35800E0124B134A7968890082
:404900008B507B6801337B607B682F2BECD9FFF777FE0E4B00221A600D4B1B68002B02D10B4B00221A608023DB058022D205126801210A431A60C046BD4602B080BDC04620
:40494000804500003148000000000020C8000020C000002090B585B000AF78600C23FC1800F014F9030023707B68022B00D8AFE07B68302B00D9ABE05C4B1B78DBB21A0040
:404980007B689A420AD35A4A0F23FB1812781A70584A0E23FB1812781A703FE0564B1B78DBB21A007B689A420AD3544A0F23FB1812781A70524A0E23FB1812781A702DE0D6
:4049C000504B1B78DBB21A007B689A420AD34E4A0F23FB1812781A704C4A0E23FB1812781A701BE04A4B1B78DBB21A007B689A420AD3484A0F23FB1812781A70464A0E2355
:404A0000FB1812781A7009E0444A0F23FB1812781A70434A0E23FB1812781A707B68DA1E0B23FB183F498A5C1A700B23FB181B782F2B0DD97B682A2B0AD93B4B19221A601C
:404A4000052000F099F80D23FB1819221A7007E0354B1B68DAB20D23FB183F210A401A700B23FA180D23FB1812781B789A4208D22D4B7A68033A2B498A5C1A60052000F0C5
:404A80007BF82A4B7A6826498C4662441278D2B21A60274B0F22BA1812781A60254B0E22BA1812781A60052000F052F80B23FA180D23FB1812781B789A420CD91A4B7A68C7
:404AC000033A18498A5C1A60052000F055F802E0002000F031F80C23FB181B78180000F059F8C046BD4605B090BDC046C0F1FF0FC1F1FF0FC2F1FF0FC3F1FF0FC4F1FF0F37
:404B0000C5F1FF0FC6F1FF0FC7F1FF0FC8F1FF0FC9F1FF0FCAF1FF0FCBF1FF0FCCF1FF0FCDF1FF0F644C00002CFF0B4028FF0B401CFF0B4020FF0B4080B582B000AF0200ED
:404B4000FB1D1A7001BEC046BD4602B080BDC04680B582B000AF0200BB1D1A80BB1D1B88044A12785343180000F006F8C046BD4602B080BDDC0000200230800804D0C046D5
:404B80000138FDD1C046C046C0467047EFF3108072B6704780F310887047C046014B18687047C046480100200E4B70B500251E000D4CE41AA410A54204D0AB00F3589847BE
:404BC0000135F8E700F066F8084B00251E00084CE41AA410A54204D0AB00F35898470135F8E770BDA04C0000A04C0000A04C0000A84C000003008218934202D0197001332B
:404C0000FAE770470000000000300F40000400400F40000407300F4005310F4004330F4003400F4003410F4005430F408A019601B001B802BE01D804DF0105200E101D0110
:404C4000C040C220A920B501B610EC1002040740C060AB40B604EC805402A002B402D604EC020000030405060708090A0B0C0E0F101112131415161718191B1C1D1E1F2037
:404C800021222325262728292A2B2E2F3031323334354300F8B5C046F8BC08BC9E4670473D470000DD480000F8B5C046F8BC08BC9E46704715470000C84C0000D000002012
:404CC000800000002000000000000000C0C62D00B80B0000030000000000DC05010000000000000000000000000000000000000000000000000000000000000000000000B9
:404D0000924C000000000000000000000000000000000000000000000000000000000000000000000000000000000000000000000000000000000000000000000000000095
:404D4000E80000200000000000000000000000000000000000000000000000000000000000000000000000000000000000000000000000000000000000000000000000002B
:404D800000100020914D00005D5000005D50000080B500AF024B83F3088800F069F9C0460010002080B500AF144B144A12688021C9020A431A60032000F0E2F90F4B0F4ADD
:404DC00012680F490A401A600E4B0F4A1A600F4B20221A600E4B802212061A60074B00221A600C4B0C4A1A600C4B0D4A1A600D4B00221A60C046BD4680BDC04600010B4085
:404E0000FFFFFBFF04010B40060000803002024008010B40000002405702008040000240F30100C00C020B4080B582B000AF72B6FB1D00221A7022E0FB1D1A7813005B0016
:404E40009B185B002E4A9B183B603B681A78597809020A43997809040A43DB781B06134318003B681A795B791B0213439BB2190000F09CF8FB1D1A78FB1D01321A70FB1DB5
:404E80001B78012BD8D91F4A1F4B1100180000F09DF81E4B1E4A1A601E4B992212041A601D4B992212041A601C4B1D4A1A601D4A1C4B1B78DBB23C218B43DBB214210B43DE
:404EC000DBB21370184A184B1B78DBB216210B43DBB21370154B80221A60154B8022D2031A60144B13221A60134B144A1A60FFF759FF00F0ADF8C046BD4602B080BDC04636
:404F0000385400005C540000445400000C00014033EE030000500F4030500F4038500F400000520201700F4000700F4000000440080004400003044008030440B66D0000CB
:404F400010B5064C2378002B07D1054B002B02D0044800E000BF0123237010BD500100200000000034540000084B10B5002B03D00749084800E000BF07480368002B00D1BC
:404F800010BD064B002BFBD09847F9E7000000005401002034540000D00000200000000080B500AF00231800BD4680BD80B582B000AF786039603A687B680021180000F09D
:404FC00031FAC046BD4602B080BDC04680B586B000AF7860396000233B6100237B612FE07B699B007A68D3181B68BB600F23FB18BA681A70BB68FF229343BB6018E03B6984
:405000005B003A68D3181B781A00BB68D31819003B695B003A68D3185B780B703B6901333B610F23FB181A780F23FB18013A1A700F23FB181B78002BE1D17B6901337B61DC
:405040007B69052BCCD9C046BD4606B080BDC04680B500AFC046BD4680BDC04680B500AF00F0B4F903001B680C2B00D1FEE7FEE780B586B000AF224B7B61224B3B61204B95
:405080007B6135E03B691B68FB603B695B68BB603B699B683B6000237B600CE0FB681A68BB681A60BB680433BB60FB680433FB607B6804337B607A683B689A42EED13B692A
:4050C000DB683B6000237B6008E0BB6800221A60BB680433BB607B6804337B607A683B689A42F2D13B6910333B617B69013B7B617B69002BC6D100F06FF9FFF751FFFEE7F7
:40510000010000003455000080B582B000AF00237B600FE07B68032B04D8144B7A689200D35800E0124B134A796889008B507B6801337B607B682F2BECD9FFF775FE0E4B62
:4051400000221A600D4B1B68002B02D10B4B00221A608023DB058022D205126801210A431A60C046BD4602B080BDC046804D00005D50000000000020C8000020C000002009
:4051800090B585B000AF78600C23FC1800F016F9030023707B68022B00D8AFE07B68302B00D9ABE05C4B1B78DBB21A007B689A420AD35A4A0F23FB1812781A70584A0E23B0
:4051C000FB1812781A703FE0564B1B78DBB21A007B689A420AD3544A0F23FB1812781A70524A0E23FB1812781A702DE0504B1B78DBB21A007B689A420AD34E4A0F23FB18AC
:4052000012781A704C4A0E23FB1812781A701BE04A4B1B78DBB21A007B689A420AD3484A0F23FB1812781A70464A0E23FB1812781A7009E0444A0F23FB1812781A70434AD6
:405240000E23FB1812781A707B68DA1E0B23FB183F498A5C1A700B23FB181B782F2B0DD97B682A2B0AD93B4B19221A60052000F09BF80D23FB1819221A7007E0354B1B68BE
:40528000DAB20D23FB183F210A401A700B23FA180D23FB1812781B789A4208D22D4B7A68033A2B498A5C1A60052000F07DF82A4B7A6826498C4662441278D2B21A60274B68
:4052C0000F22BA1812781A60254B0E22BA1812781A60052000F052F80B23FA180D23FB1812781B789A420CD91A4B7A68033A18498A5C1A60052000F057F802E0002000F0D6
:4053000031F80C23FB181B78180000F05BF8C046BD4605B090BDC046C0F1FF0FC1F1FF0FC2F1FF0FC3F1FF0FC4F1FF0FC5F1FF0FC6F1FF0FC7F1FF0FC8F1FF0FC9F1FF0F60
:40534000CAF1FF0FCBF1FF0FCCF1FF0FCDF1FF0FE05400002CFF0B4028FF0B401CFF0B4020FF0B4080B582B000AF0200FB1D1A7001BEC046BD4602B080BDC04680B582B039
:4053800000AF0200BB1D1A80BB1D1B88044A12785343180000F008F8C046BD4602B080BDDC000020000000000230800804D0C0460138FDD1C046C046C0467047EFF310800F
:4053C00072B6704780F310887047C046014B18687047C046480100200E4B70B500251E000D4CE41AA410A54204D0AB00F35898470135F8E700F08CF8084B00251E00084C45
:40540000E41AA410A54204D0AB00F35898470135F8E770BD1C5500001C5500001C5500002455000003008218934202D019700133FAE770470000000000300F4000040040C0
:405440000F4000041A320F4017330F4002400F4002410F400A430F4002600F40831086408C268ED9930195049601970898289A149C9E9E219F04A102AF03B00CB103B203DC
:40548000B310B4C0B504B630B708D804D904DF010040032009200A11184019411A111B2021AA2941318A3A0281028B208E109A02AE02C005C207CA09CC0BCE01E0010F02C2
:4054C000C280AF01EC1053045B20620282028B048F20D405D802E001E408010110010000030405060708090A0B0C0E0F101112131415161718191B1C1D1E1F2021222325C2
:40550000262728292A2B2E2F3031323334354300F8B5C046F8BC08BC9E467047694F000009510000F8B5C046F8BC08BC9E467047414F000048550000D0000020800000006E
:40554000200000000000000000000000C0C62D00B80B0000030000000000DC05010000000000000000000000000000000000000000000000000000000000000000000000B0
:405580000E55000000000000000000000000000000000000000000000000000000000000000000000000000000000000000000000000000000000000000000000000000088
:4055C000E8000020000000000000000000000000000000000000000000000000000000000000000000000000000000000000000000000000000000000000000000000000A3
:405600000010002011560000B9580000B958000080B500AF024B83F3088800F057F9C0460010002080B500AF144B144A12688021C9020A431A60032000F0D0F90F4B0F4A27
:4056400012680F490A401A600E4B0F4A1A600F4B20221A600E4B802212061A60074B00221A600C4B0C4A1A600C4B0D4A1A600D4B00221A60C046BD4680BDC04600010B40FC
:40568000FFFFFBFF04010B40060000803002024008010B40000002405702008040000240F30100C00C020B4080B582B000AF72B6FB1D00221A7022E0FB1D1A7813005B008E
:4056C0009B185B00294A9B183B603B681A78597809020A43997809040A43DB781B06134318003B681A795B791B0213439BB2190000F08AF8FB1D1A78FB1D01321A70FB1D44
:405700001B78012BD8D91A4A1A4B1100180000F08BF8194B194A1A60194B992212041A60184BA92292041A60174A174B1B78DBB23C218B43DBB214210B43DBB21370134ADB
:40574000124B1B78DBB216210B43DBB21370104B13221A600F4B104A1A60FFF763FF00F0A5F8C046BD4602B080BDC046905C0000B05C00009C5C00000C00014033EE03009B
:4057800030500F4038500F4001700F4000700F400003044008030440B66D000010B5064C2378002B07D1054B002B02D0044800E000BF0123237010BD500100200000000029
:4057C0008C5C0000084B10B5002B03D00749084800E000BF07480368002B00D110BD064B002BFBD09847F9E700000000540100208C5C0000D00000200000000080B500AFB2
:4058000000231800BD4680BD80B582B000AF786039603A687B680021180000F02FFAC046BD4602B080BDC04680B586B000AF7860396000233B6100237B612FE07B699B00BA
:405840007A68D3181B68BB600F23FB18BA681A70BB68FF229343BB6018E03B695B003A68D3181B781A00BB68D31819003B695B003A68D3185B780B703B6901333B610F23BF
:40588000FB181A780F23FB18013A1A700F23FB181B78002BE1D17B6901337B617B69042BCCD9C046BD4606B080BDC04680B500AFC046BD4680BDC04680B500AF00F0B2F927
:4058C00003001B680C2B00D1FEE7FEE780B586B000AF224B7B61224B3B61204B7B6135E03B691B68FB603B695B68BB603B699B683B6000237B600CE0FB681A68BB681A60D6
:40590000BB680433BB60FB680433FB607B6804337B607A683B689A42EED13B69DB683B6000237B6008E0BB6800221A60BB680433BB607B6804337B607A683B689A42F2D133
:405940003B6910333B617B69013B7B617B69002BC6D100F06DF9FFF751FFFEE701000000885D000080B582B000AF00237B600FE07B68032B04D8144B7A689200D35800E0CD
:40598000124B134A796889008B507B6801337B607B682F2BECD9FFF787FE0E4B00221A600D4B1B68002B02D10B4B00221A608023DB058022D205126801210A431A60C04654
:4059C000BD4602B080BDC04600560000B958000000000020C8000020C000002090B585B000AF78600C23FC1800F014F9030023707B68022B00D8AFE07B68302B00D9ABE070
:405A00005C4B1B78DBB21A007B689A420AD35A4A0F23FB1812781A70584A0E23FB1812781A703FE0564B1B78DBB21A007B689A420AD3544A0F23FB1812781A70524A0E2398
:405A4000FB1812781A702DE0504B1B78DBB21A007B689A420AD34E4A0F23FB1812781A704C4A0E23FB1812781A701BE04A4B1B78DBB21A007B689A420AD3484A0F23FB1865
:405A800012781A70464A0E23FB1812781A7009E0444A0F23FB1812781A70434A0E23FB1812781A707B68DA1E0B23FB183F498A5C1A700B23FB181B782F2B0DD97B682A2BD5
:405AC0000AD93B4B19221A60052000F099F80D23FB1819221A7007E0354B1B68DAB20D23FB183F210A401A700B23FA180D23FB1812781B789A4208D22D4B7A68033A2B498C
:405B00008A5C1A60052000F07BF82A4B7A6826498C4662441278D2B21A60274B0F22BA1812781A60254B0E22BA1812781A60052000F052F80B23FA180D23FB1812781B78C9
:405B40009A420CD91A4B7A68033A18498A5C1A60052000F055F802E0002000F031F80C23FB181B78180000F059F8C046BD4605B090BDC046C0F1FF0FC1F1FF0FC2F1FF0F23
:405B8000C3F1FF0FC4F1FF0FC5F1FF0FC6F1FF0FC7F1FF0FC8F1FF0FC9F1FF0FCAF1FF0FCBF1FF0FCCF1FF0FCDF1FF0F345D00002CFF0B4028FF0B401CFF0B4020FF0B400F
:405BC00080B582B000AF0200FB1D1A7001BEC046BD4602B080BDC04680B582B000AF0200BB1D1A80BB1D1B88044A12785343180000F006F8C046BD4602B080BDDC000020C1
:405C00000230800804D0C0460138FDD1C046C046C0467047EFF3108072B6704780F310887047C046014B18687047C046480100200E4B70B500251E000D4CE41AA410A54242
:405C400004D0AB00F35898470135F8E700F08AF8084B00251E00084CE41AA410A54204D0AB00F35898470135F8E770BD705D0000705D0000705D0000785D000003008218AD
:405C8000934202D019700133FAE770470000000000300F40000400400F40000401000F4020320F4016330F4009430F4002600F40230A8C9A8E64930196019A409CAC9E537A
:405CC000A303AC14AD02AE28B00CB103B203B4C0B630C005C720C820C9FFCAFFCBFFCD20CEF0D110D804D904DA04DF01E040E140E28000400A151002184019611A15210210
:405D00002941310248025002812085028E10C001C207C401CA09CC01D208E002E401522056106204822086108E04D406D802E40801011001030405060708090A0B0C0E0FB1
:405D4000101112131415161718191B1C1D1E1F2021222325262728292A2B2E2F3031323334354300F8B5C046F8BC08BC9E467047C557000065590000F8B5C046F8BC08BC8D
:405D80009E4670479D570000985D0000D0000020800000002000000000000000C0C62D00B80B0000030000000000DC05010000000000000000000000000000000000000074
:405DC00000000000000000000000000000000000625D00000000000000000000000000000000000000000000000000000000000000000000000000000000000000000000E4
:405E000000000000000000000000000000000000E800002000000000000000000000000000000000000000000000000000000000000000000000000000000000000000005A
:405E40000000000000000000000000000000000000000000000000000000000000000000000000000000000000000000000000000000000000000000000000000000000022
:405E800000100020915E0000396100003961000080B500AF024B83F3088800F057F9C0460010002080B500AF144B144A12688021C9020A431A60032000F0D0F90F4B0F4A05
:405EC00012680F490A401A600E4B0F4A1A600F4B20221A600E4B802212061A60074B00221A600C4B0C4A1A600C4B0D4A1A600D4B00221A60C046BD4680BDC04600010B4074
:405F0000FFFFFBFF04010B40060000803002024008010B40000002405702008040000240F30100C00C020B4080B582B000AF72B6FB1D00221A7022E0FB1D1A7813005B0005
:405F40009B185B00294A9B183B603B681A78597809020A43997809040A43DB781B06134318003B681A795B791B0213439BB2190000F08AF8FB1D1A78FB1D01321A70FB1DBB
:405F80001B78012BD8D91A4A1A4B1100180000F08BF8194B194A1A60194B992212041A60184BA92292041A60174A174B1B78DBB23C218B43DBB214210B43DBB21370134A53
:405FC000124B1B78DBB216210B43DBB21370104B13221A600F4B104A1A60FFF763FF00F0A5F8C046BD4602B080BDC04610650000306500001C6500000C00014033EE030078
:4060000030500F4038500F4001700F4000700F400003044008030440B66D000010B5064C2378002B07D1054B002B02D0044800E000BF0123237010BD5001002000000000A0
:406040000C650000084B10B5002B03D00749084800E000BF07480368002B00D110BD064B002BFBD09847F9E700000000540100200C650000D00000200000000080B500AF17
:4060800000231800BD4680BD80B582B000AF786039603A687B680021180000F02FFAC046BD4602B080BDC04680B586B000AF7860396000233B6100237B612FE07B699B0032
:4060C0007A68D3181B68BB600F23FB18BA681A70BB68FF229343BB6018E03B695B003A68D3181B781A00BB68D31819003B695B003A68D3185B780B703B6901333B610F2337
:40610000FB181A780F23FB18013A1A700F23FB181B78002BE1D17B6901337B617B69042BCCD9C046BD4606B080BDC04680B500AFC046BD4680BDC04680B500AF00F0B2F99E
:4061400003001B680C2B00D1FEE7FEE780B586B000AF224B7B61224B3B61204B7B6135E03B691B68FB603B695B68BB603B699B683B6000237B600CE0FB681A68BB681A604D
:40618000BB680433BB60FB680433FB607B6804337B607A683B689A42EED13B69DB683B6000237B6008E0BB6800221A60BB680433BB607B6804337B607A683B689A42F2D1AB
:4061C0003B6910333B617B69013B7B617B69002BC6D100F06DF9FFF751FFFEE7010000000866000080B582B000AF00237B600FE07B68032B04D8144B7A689200D35800E0BC
:40620000124B134A796889008B507B6801337B607B682F2BECD9FFF787FE0E4B00221A600D4B1B68002B02D10B4B00221A608023DB058022D205126801210A431A60C046CB
:40624000BD4602B080BDC046805E00003961000000000020C8000020C000002090B585B000AF78600C23FC1800F014F9030023707B68022B00D8AFE07B68302B00D9ABE0D6
:406280005C4B1B78DBB21A007B689A420AD35A4A0F23FB1812781A70584A0E23FB1812781A703FE0564B1B78DBB21A007B689A420AD3544A0F23FB1812781A70524A0E2310
:4062C000FB1812781A702DE0504B1B78DBB21A007B689A420AD34E4A0F23FB1812781A704C4A0E23FB1812781A701BE04A4B1B78DBB21A007B689A420AD3484A0F23FB18DD
:4063000012781A70464A0E23FB1812781A7009E0444A0F23FB1812781A70434A0E23FB1812781A707B68DA1E0B23FB183F498A5C1A700B23FB181B782F2B0DD97B682A2B4C
:406340000AD93B4B19221A60052000F099F80D23FB1819221A7007E0354B1B68DAB20D23FB183F210A401A700B23FA180D23FB1812781B789A4208D22D4B7A68033A2B4903
:406380008A5C1A60052000F07BF82A4B7A6826498C4662441278D2B21A60274B0F22BA1812781A60254B0E22BA1812781A60052000F052F80B23FA180D23FB1812781B7841
:4063C0009A420CD91A4B7A68033A18498A5C1A60052000F055F802E0002000F031F80C23FB181B78180000F059F8C046BD4605B090BDC046C0F1FF0FC1F1FF0FC2F1FF0F9B
:40640000C3F1FF0FC4F1FF0FC5F1FF0FC6F1FF0FC7F1FF0FC8F1FF0FC9F1FF0FCAF1FF0FCBF1FF0FCCF1FF0FCDF1FF0FB46500002CFF0B4028FF0B401CFF0B4020FF0B40FE
:4064400080B582B000AF0200FB1D1A7001BEC046BD4602B080BDC04680B582B000AF0200BB1D1A80BB1D1B88044A12785343180000F006F8C046BD4602B080BDDC00002038
:406480000230800804D0C0460138FDD1C046C046C0467047EFF3108072B6704780F310887047C046014B18687047C046480100200E4B70B500251E000D4CE41AA410A542BA
:4064C00004D0AB00F35898470135F8E700F08AF8084B00251E00084CE41AA410A54204D0AB00F35898470135F8E770BDF0650000F0650000F0650000F86500000300821805
:40650000934202D019700133FAE770470000000000300F40000400400F40000401000F4020320F4016330F4009430F4002600F40230A8C9A8E64930196019A409CAC9E53F1
:40654000A303AC14AD02AE28B00CB103B203B4C0B630C005C720C820C9FFCAFFCBFFCD20CEF0D110D804D904DA04DF01E040E140E28000400A151002184019611A15210287
:406580002941310248025002812085028E10C001C207C401CA09CC01D208E002E401522056106204822086108E04D406D802E40801011001030405060708090A0B0C0E0F29
:4065C000101112131415161718191B1C1D1E1F2021222325262728292A2B2E2F3031323334354300F8B5C046F8BC08BC9E46704745600000E5610000F8B5C046F8BC08BCF4
:406600009E4670471D60000018660000D0000020800000002000000000000000C0C62D00B80B0000030000000000DC050100000000000000000000000000000000000000D9
:4066400000000000000000000000000000000000E26500000000000000000000000000000000000000000000000000000000000000000000000000000000000000000000D3
:4066800000000000000000000000000000000000E80000200000000000000000000000000000000000000000000000000000000000000000000000000000000000000000D2
:4066C000000000000000000000000000000000000000000000000000000000000000000000000000000000000000000000000000000000000000000000000000000000009A
:406700000010002011670000B9690000B969000080B500AF024B83F3088800F057F9C0460010002080B500AF144B144A12688021C9020A431A60032000F0D0F90F4B0F4AE3
:4067400012680F490A401A600E4B0F4A1A600F4B20221A600E4B802212061A60074B00221A600C4B0C4A1A600C4B0D4A1A600D4B00221A60C046BD4680BDC04600010B40EB
:40678000FFFFFBFF04010B40060000803002024008010B40000002405702008040000240F30100C00C020B4080B582B000AF72B6FB1D00221A7022E0FB1D1A7813005B007D
:4067C0009B185B00284A9B183B603B681A78597809020A43997809040A43DB781B06134318003B681A795B791B0213439BB2190000F08AF8FB1D1A78FB1D01321A70FB1D34
:406800001B78012BD8D9194A194B1100180000F08BF8184B184A1A60184B992212041A60174B184A1A60184A174B1B78DBB23C218B43DBB214210B43DBB21370134A134B70
:406840001B78DBB216210B43DBB21370104B13221A60104B104A1A60FFF764FF00F0A6F8C046BD4602B080BD006E0000206E00000C6E00000C00014033EE030030500F4095
:4068800038500F400000090201700F4000700F400003044008030440B66D000010B5064C2378002B07D1054B002B02D0044800E000BF0123237010BD5001002000000000DC
:4068C000FC6D0000084B10B5002B03D00749084800E000BF07480368002B00D110BD064B002BFBD09847F9E70000000054010020FC6D0000D00000200000000080B500AF9F
:4069000000F024FA62B6FEE780B582B000AF786039603A687B680021180000F067FAC046BD4602B080BDC04680B586B000AF7860396000233B6100237B612FE07B699B00E1
:406940007A68D3181B68BB600F23FB18BA681A70BB68FF229343BB6018E03B695B003A68D3181B781A00BB68D31819003B695B003A68D3185B780B703B6901333B610F23AE
:40698000FB181A780F23FB18013A1A700F23FB181B78002BE1D17B6901337B617B69042BCCD9C046BD4606B080BDC04680B500AFC046BD4680BDC04680B500AF00F0EAF9DE
:4069C00003001B680C2B00D1FEE7FEE780B586B000AF224B7B61224B3B61204B7B6135E03B691B68FB603B695B68BB603B699B683B6000237B600CE0FB681A68BB681A60C5
:406A0000BB680433BB60FB680433FB607B6804337B607A683B689A42EED13B69DB683B6000237B6008E0BB6800221A60BB680433BB607B6804337B607A683B689A42F2D122
:406A40003B6910333B617B69013B7B617B69002BC6D100F0A5F9FFF751FFFEE701000000086F000080B582B000AF00237B600FE07B68032B04D8144B7A689200D35800E0F2
:406A8000124B134A796889008B507B6801337B607B682F2BECD9FFF787FE0E4B00221A600D4B1B68002B02D10B4B00221A608023DB058022D205126801210A431A60C04643
:406AC000BD4602B080BDC04600670000B969000000000020C8000020C000002090B585B000AF78600C23FC1800F04CF9030023707B68022B00D8AFE07B68302B00D9ABE005
:406B00005C4B1B78DBB21A007B689A420AD35A4A0F23FB1812781A70584A0E23FB1812781A703FE0564B1B78DBB21A007B689A420AD3544A0F23FB1812781A70524A0E2387
:406B4000FB1812781A702DE0504B1B78DBB21A007B689A420AD34E4A0F23FB1812781A704C4A0E23FB1812781A701BE04A4B1B78DBB21A007B689A420AD3484A0F23FB1854
:406B800012781A70464A0E23FB1812781A7009E0444A0F23FB1812781A70434A0E23FB1812781A707B68DA1E0B23FB183F498A5C1A700B23FB181B782F2B0DD97B682A2BC4
:406BC0000AD93B4B19221A60052000F0D1F80D23FB1819221A7007E0354B1B68DAB20D23FB183F210A401A700B23FA180D23FB1812781B789A4208D22D4B7A68033A2B4943
:406C00008A5C1A60052000F0B3F82A4B7A6826498C4662441278D2B21A60274B0F22BA1812781A60254B0E22BA1812781A60052000F052F80B23FA180D23FB1812781B7880
:406C40009A420CD91A4B7A68033A18498A5C1A60052000F08DF802E0002000F031F80C23FB181B78180000F091F8C046BD4605B090BDC046C0F1FF0FC1F1FF0FC2F1FF0FA2
:406C8000C3F1FF0FC4F1FF0FC5F1FF0FC6F1FF0FC7F1FF0FC8F1FF0FC9F1FF0FCAF1FF0FCBF1FF0FCCF1FF0FCDF1FF0FB46E00002CFF0B4028FF0B401CFF0B4020FF0B406D
:406CC00080B582B000AF0200FB1D1A7001BEC046BD4602B080BDC04680B582B000AF0200BB1D1A80BB1D1B88044A12785343180000F03EF8C046BD4602B080BDDC00002078
:406D000080B500AF024B0A221A70C046BD4680BD83000F4090B583B000AFFC1D00F032F803002370084A084B1B78DBB220210B43DBB21370FB1D1B78180000F027F8C04628
:406D4000BD4603B090BDC04693000F4080B500AF064B1B78002B04D1FFF7D2FF034B01221A70FFF7D7FFC046BD4680BD6C0100200230800804D0C0460138FDD1C046C04658
:406D8000C0467047EFF3108072B6704780F310887047C046014B18687047C046480100200E4B70B500251E000D4CE41AA410A54204D0AB00F35898470135F8E700F092F820
:406DC000084B00251E00084CE41AA410A54204D0AB00F35898470135F8E770BDF06E0000F06E0000F06E0000F86E000003008218934202D019700133FAE77047000000000C
:406E000000300F40000400400F40000402000F4024320F4018330F400A430F4002600F402303837F802A82D58C018E0490089202930196409A109CA79E18A102AF03B003D6
:406E4000B103B2C0B430B60CC045C720C820C9FFCAFFCBFFCD20CEF0D110D602D804D904DA04DB04DF01E440E540E680010202010A5519431A15204021022941310242401C
:406E8000480250025201724086048C408E10C009C20FCA09CC01D001D208E00256105B20602086108C208F20D403D802E002E40801011001030405060708090A0B0C0E0F2A
:406EC000101112131415161718191B1C1D1E1F2021222325262728292A2B2E2F3031323334354300F8B5C046F8BC08BC9E467047C5680000656A0000F8B5C046F8BC08BCDA
:406F00009E4670479D680000186F0000D0000020800000002000000000000000C0C62D00B80B0000030000000000DC0501000000000000000000000000000000000000003F
:406F400000000000000000000000000000000000E26E00000000000000000000000000000000000000000000000000000000000000000000000000000000000000000000C1
:406F800000000000000000000000000000000000E80000200000000000000000000000000000000000000000000000000000000000000000000000000000000000000000C9
:406FC0000000000000000000000000000000000000000000000000000000000000000000000000000000000000000000000000000000000000000000000000000000000091
:407000000000000000000000000000000000000000000000000000000000000000000000000000000000000000000000000000000000000000000000000000000000000050
:407040000000000000000000000000000000000000000000000000000000000000000000000000000000000000000000000000000000000000000000000000000000000010
:4070800000000000000000000000000000000000000000000000000000000000000000000000000000000000000000000000000000000000000000000000000000000000D0
:407FC000FE11670000CD0000000009000000000000000000000000000000000000000000000000000000000000000000000000000000000000000000000000000000000035
:0200000490303A
:02000000D881A5
:0200000490402A
:4000000000000000000000000000000000000000000000000000000000000000000000000000000000000000000000000000000000000000000000000000000000000000C0
:0200000490501A
:0C000000000204C81193110104EBEA1483
:0200000490600A
:0100000001FE
:00000001FF